{
  "contractName": "HashStorage",
  "abi": [
    {
      "inputs": [],
      "name": "latestHash",
      "outputs": [
        {
          "internalType": "bytes32",
          "name": "",
          "type": "bytes32"
        }
      ],
      "stateMutability": "view",
      "type": "function",
      "constant": true
    },
    {
      "inputs": [
        {
          "internalType": "bytes32",
          "name": "hash",
          "type": "bytes32"
        }
      ],
      "name": "store",
      "outputs": [],
      "stateMutability": "nonpayable",
      "type": "function"
    }
  ],
  "bytecode": "0x608060405234801561001057600080fd5b5060b18061001f6000396000f3fe6080604052348015600f57600080fd5b506004361060325760003560e01c8063654cf88c1460375780636f17d258146049575b600080fd5b604760423660046063565b600055565b005b605160005481565b60405190815260200160405180910390f35b600060208284031215607457600080fd5b503591905056fea2646970667358221220259ad608beb1294288a9740a767fed164270d31f901225ce8d688d164478c74d64736f6c63430008110033",
  "immutableReferences": {},
  "source": "// SPDX-License-Identifier: GPL-3.0\r\n\r\npragma solidity >=0.7.0 <0.9.0;\r\n\r\n/**\r\n * @title Hash Storage\r\n * @dev Store & retrieve 256-bit hash values\r\n */\r\ncontract HashStorage {\r\n\r\n    /**\r\n     * @dev Read this public variable to retrieve the latest hash stored.\r\n     */\r\n    bytes32 public latestHash;\r\n\r\n    /**\r\n     * @dev Stores the given hash as latest hash value.\r\n     * @param hash value to store\r\n     */\r\n    function store(bytes32 hash) public {\r\n        latestHash = hash;\r\n    }\r\n}\r\n",
  "sourcePath": "C:\\Users\\danie\\Desktop\\ttsm-prototype\\contracts\\hash-storage.sol",
  "compiler": {
    "name": "solc",
    "version": "0.8.17+commit.8df45f5f.Emscripten.clang"
  },
  "schemaVersion": "3.4.10",
  "updatedAt": "2022-10-07T17:38:00.540Z",
  "networkType": "ethereum",
  "devdoc": {
    "details": "Store & retrieve 256-bit hash values",
    "kind": "dev",
    "methods": {
      "store(bytes32)": {
        "details": "Stores the given hash as latest hash value.",
        "params": {
          "hash": "value to store"
        }
      }
    },
    "stateVariables": {
      "latestHash": {
        "details": "Read this public variable to retrieve the latest hash stored."
      }
    },
    "title": "Hash Storage",
    "version": 1
  },
  "userdoc": {
    "kind": "user",
    "methods": {},
    "version": 1
  }
}