{
  "contractName": "HashStorage",
  "abi": [
    {
      "inputs": [
        {
          "internalType": "bytes32",
          "name": "hash",
          "type": "bytes32"
        }
      ],
      "name": "store",
      "outputs": [],
      "stateMutability": "nonpayable",
      "type": "function"
    },
    {
      "inputs": [],
      "name": "retrieve",
      "outputs": [
        {
          "internalType": "bytes32[]",
          "name": "",
          "type": "bytes32[]"
        }
      ],
      "stateMutability": "view",
      "type": "function",
      "constant": true
    }
  ],
  "bytecode": "0x608060405234801561001057600080fd5b50610186806100206000396000f3fe608060405234801561001057600080fd5b50600436106100365760003560e01c80632e64cec11461003b578063654cf88c14610059575b600080fd5b61004361009b565b60405161005091906100f3565b60405180910390f35b610099610067366004610137565b600080546001810182559080527f290decd9548b62a8d60345a988386fc84ba6bc95484008f6362f93160ef3e5630155565b005b606060008054806020026020016040519081016040528092919081815260200182805480156100e957602002820191906000526020600020905b8154815260200190600101908083116100d5575b5050505050905090565b6020808252825182820181905260009190848201906040850190845b8181101561012b5783518352928401929184019160010161010f565b50909695505050505050565b60006020828403121561014957600080fd5b503591905056fea2646970667358221220bbbe236e42d5da03617cb10fe832e3a21c3498c4f5ba74a7aed342c1653f0e0664736f6c63430008110033",
  "immutableReferences": {},
  "source": "// SPDX-License-Identifier: GPL-3.0\r\n\r\npragma solidity >=0.7.0 <0.9.0;\r\n\r\n/**\r\n * @title Hash Storage\r\n * @dev Store & retrieve hash values from an array\r\n */\r\ncontract HashStorage {\r\n\r\n    bytes32[] hashes;\r\n\r\n    /**\r\n     * @dev Appends the given hash to the array.\r\n     * @param hash value to store\r\n     */\r\n    function store(bytes32 hash) public {\r\n        hashes.push(hash);\r\n    }\r\n\r\n    /**\r\n     * @dev Return value\r\n     * @return value of 'number'\r\n     */\r\n    function retrieve() public view returns (bytes32[] memory){\r\n        return hashes;\r\n    }\r\n}\r\n",
  "sourcePath": "C:\\Users\\danie\\Desktop\\ttsm-prototype\\contracts\\hash-storage.sol",
  "compiler": {
    "name": "solc",
    "version": "0.8.17+commit.8df45f5f.Emscripten.clang"
  },
  "schemaVersion": "3.4.10",
  "updatedAt": "2022-10-07T14:28:38.900Z",
  "networkType": "ethereum",
  "devdoc": {
    "details": "Store & retrieve hash values from an array",
    "kind": "dev",
    "methods": {
      "retrieve()": {
        "details": "Return value",
        "returns": {
          "_0": "value of 'number'"
        }
      },
      "store(bytes32)": {
        "details": "Appends the given hash to the array.",
        "params": {
          "hash": "value to store"
        }
      }
    },
    "title": "Hash Storage",
    "version": 1
  },
  "userdoc": {
    "kind": "user",
    "methods": {},
    "version": 1
  }
}