{
  "contractName": "HashStorage",
  "abi": [
    {
      "anonymous": false,
      "inputs": [
        {
          "indexed": false,
          "internalType": "bytes32",
          "name": "hash",
          "type": "bytes32"
        }
      ],
      "name": "StoreHash",
      "type": "event"
    },
    {
      "inputs": [
        {
          "internalType": "bytes32",
          "name": "hash",
          "type": "bytes32"
        }
      ],
      "name": "store",
      "outputs": [],
      "stateMutability": "nonpayable",
      "type": "function"
    }
  ],
  "bytecode": "0x608060405234801561001057600080fd5b5060c28061001f6000396000f3fe6080604052348015600f57600080fd5b506004361060285760003560e01c8063654cf88c14602d575b600080fd5b603c60383660046074565b603e565b005b6040518181527f5e92bd76a4d134c8db2c688f347f17767ef4de921d24e417a08ae3bf91dbf8299060200160405180910390a150565b600060208284031215608557600080fd5b503591905056fea26469706673582212202d3213d0f2c32e25efae26a578167f2402b417b9c424af3016a43e784109131864736f6c63430008110033",
  "immutableReferences": {},
  "source": "// SPDX-License-Identifier: GPL-3.0\r\n\r\npragma solidity >=0.7.0 <0.9.0;\r\n\r\n/**\r\n * @title Hash Storage\r\n * @dev Store 256-bit hash values as event log\r\n */\r\ncontract HashStorage {\r\n\r\n    /**\r\n     * @dev Stores all hashes in an append-only event log. Using events reduces gas cost dramatically.\r\n     */\r\n    event StoreHash(bytes32 hash);\r\n\r\n    /**\r\n     * @dev Stores the given hash as latest hash value.\r\n     * @param hash value to store\r\n     */\r\n    function store(bytes32 hash) public {\r\n        emit StoreHash(hash);\r\n    }\r\n}\r\n",
  "sourcePath": "C:\\Users\\danie\\Desktop\\ttsm-prototype\\contracts\\HashStorage.sol",
  "compiler": {
    "name": "solc",
    "version": "0.8.17+commit.8df45f5f.Emscripten.clang"
  },
  "schemaVersion": "3.4.10",
  "updatedAt": "2022-10-07T18:09:38.062Z",
  "networkType": "ethereum",
  "devdoc": {
    "details": "Store 256-bit hash values as event log",
    "events": {
      "StoreHash(bytes32)": {
        "details": "Stores all hashes in an append-only event log. Using events reduces gas cost dramatically."
      }
    },
    "kind": "dev",
    "methods": {
      "store(bytes32)": {
        "details": "Stores the given hash as latest hash value.",
        "params": {
          "hash": "value to store"
        }
      }
    },
    "title": "Hash Storage",
    "version": 1
  },
  "userdoc": {
    "kind": "user",
    "methods": {},
    "version": 1
  }
}